:100000000C9434000C9451000C9451000C94510049
:100010000C9451000C9451000C9451000C9451001C
:100020000C9451000C9451000C9451000C9451000C
:100030000C9451000C9451000C9451000C945100FC
:100040000C9451000C9451000C9451000C945100EC
:100050000C9451000C9451000C9451000C945100DC
:100060000C9451000C94510011241FBECFEFD8E026
:10007000DEBFCDBF11E0A0E0B1E0EAE0FAE002C0EF
:1000800005900D92AE32B107D9F721E0AEE2B1E0B2
:1000900001C01D92A735B207E1F70E94B7040C9486
:1000A00003050C9400009DEC899F912D11249695D9
:1000B0009695969520E1929FA0011124990F292FE2
:1000C000220F220F920F891B842B0895982F96954B
:1000D000969596959E70292F220F220F920F8F7062
:1000E000890F0895EF92FF920F931F93CF93DF93A1
:1000F000CDB7DEB72C970FB6F894DEBF0FBECDBFDD
:100100004F83588769877A878B879C878E01095F21
:100110001F4F7E018DE0E80EF11CF80180810E94E6
:100120006600F80181938F01EE15FF05B1F786E0B7
:10013000FE013796DE01119601900D928A95E1F746
:1001400029813A814B815C816D817E8180E090E0E4
:100150002C960FB6F894DEBF0FBECDBFDF91CF91C6
:100160001F910F91FF90EF900895EF92FF920F93E0
:100170001F93CF93DF93CDB7DEB72C970FB6F894CC
:10018000DEBF0FBECDBF4F83588769877A878B87C5
:100190009C878E01095F1F4F7E018DE0E80EF11CE8
:1001A000F80180810E945300F80181938F01EE15C0
:1001B000FF05B1F786E0FE013796DE01119601904A
:1001C0000D928A95E1F729813A814B815C816D819D
:1001D0007E8180E090E02C960FB6F894DEBF0FBED3
:1001E000CDBFDF91CF911F910F91FF90EF900895B8
:1001F000662311F08F70089582958F70877008952F
:10020000452BE9F0880F991FFC01E15EFE4F01903C
:10021000F081E02D2081DC01AC5EBE4F8D919C9180
:10022000DC01A60FB71F81E090E00C9002C0880FA0
:10023000991F0A94E2F78095822380830895880F9E
:10024000991FFC01E15EFE4F0190F081E02D2081BD
:10025000DC01AC5EBE4F8D919C91DC01A60FB71FF7
:1002600081E090E00C9002C0880F991F0A94E2F799
:10027000822B80830895CF93DF93CDB7DEB72C9781
:100280000FB6F894DEBF0FBECDBF9AE0E3E2F1E017
:10029000DE01119601900D929A95E1F78B876C879C
:1002A00080914D0190914E01682F617096958795D0
:1002B000FE01E80FF91F83850E94F800E1E0F0E0FD
:1002C000EC0FFD1FE80FF11D808185B92C960FB64C
:1002D000F894DEBF0FBECDBFDF91CF9108950E948D
:1002E0006600809585B90895EF92FF920F931F9352
:1002F000CF93DF9300D000D000D0CDB7DEB74983D5
:100300005A836B837C838D839E837901609149013D
:1003100070914A0140E050E080914B0190914C0176
:100320000E94000180914F0190915001009789F443
:1003300085E0E816F10429F0FE01EE0DFF1D828133
:1003400001C080E2FE01EE0DFF1D61810E943B01B4
:1003500008C0019731F4FE01E00FF11F81810E9476
:100360006F0160914D0170914E0141E050E080912C
:100370004F01909150010E94000140914F01509116
:10038000500150934C0140934B0180914D0190914D
:100390004E0190934A0180934901019690934E013A
:1003A00080934D01FA01E35EFE4F208130E0821719
:1003B000930751F44F5F5F4F5093500140934F01AB
:1003C00010924E0110924D0180914F019091500179
:1003D000029721F41092500110924F0126960FB609
:1003E000F894DEBF0FBECDBFDF91CF911F910F916B
:1003F000FF90EF900895E82F99B1892F90E0F0E0F9
:10040000EC5FFE4F008002C0959587950A94E2F755
:1004100021E08227817008958F929F92AF92BF92C0
:10042000EF920F931F93CF93DF93220F331F220F6F
:10043000331FEA01C20FD31F88809980AA80BB8036
:1004400086169706A806B90660F4B501A4014F5FA9
:100450005F4F6F4F7F4F488359836A837B8380E070
:100460000DC0802F0E94FB01182F8E2D0E94FB01D2
:10047000812321F0188219821A821B82DF91CF9189
:100480001F910F91EF90BF90AF909F908F90089524
:100490001092B90080E28093B800089584EA8093B6
:1004A000BC00ECEBF0E080818823ECF79091B90080
:1004B000987F81E0983009F080E008958093BB0038
:1004C00084E88093BC00ECEBF0E080818823ECF7BB
:1004D0009091B900987F81E0983109F080E008950B
:1004E0008093BB0084E88093BC00ECEBF0E080815B
:1004F0008823ECF79091B900987F81E0983209F455
:1005000080E0089584E88093BC00ECEBF0E080810B
:100510008823ECF78091BB000895CF93DF93D82F09
:10052000C62F0E944E028EED0E945E028D2F0E9409
:1005300070028C2F0E94700284E98093BC00DF91CE
:10054000CF910895CF93C62F0E944E028EED0E9448
:100550005E028C2F0E9470020E944E028FED0E945C
:100560005E020E94820294E99093BC00CF910895AC
:10057000CF92DF92EF92FF920F931F93CF93DF936F
:10058000CDB7DEB72C970FB6F894DEBF0FBECDBF48
:1005900007E011E07E0187E0E80EF11C0F2EFDE080
:1005A000CF2EF1E0DF2EF02DF80161918F018EED5D
:1005B0000E94A202F70181937F010C151D05A1F78E
:1005C00086E0FE013796DE01119601900D928A9524
:1005D000E1F729813A814B815C816D817E8180E0E8
:1005E00090E02C960FB6F894DEBF0FBECDBFDF9122
:1005F000CF911F910F91FF90EF90DF90CF900895D2
:10060000EF92FF920F931F93CF93DF93CDB7DEB797
:100610002C970FB6F894DEBF0FBECDBF0E94B80274
:10062000B22FA32FF42FE52F862F972F20912E0185
:1006300030E000E010E04B2F5A2F6F2F7E2F0E94EA
:100640007401EE24E394F12C01E010E021E030E0AD
:1006500041E351E060EB70E080E090E00E940C022A
:10066000882351F080912E0190E0019666E070E0C1
:100670000E94DB0480932E016894EE24E1F8F12CB3
:1006800002E010E022E030E041E351E060E071E0A0
:1006900080E090E00E940C028823F1F00E94B802F2
:1006A000F42FE52F862F972F422F532F6F2F7E2F5A
:1006B0000E947200209351013093520140935301E4
:1006C00050935401609355017093560181E090E07E
:1006D0009093300180932F012C960FB6F894DEBFD3
:1006E0000FBECDBFDF91CF911F910F91FF90EF9083
:1006F0000895CF92DF92EF92FF920F931F93CF93C3
:10070000DF9300D000D000D0CDB7DEB749835A8345
:100710006B837C838D839E838E010F5F1F4F0F2E13
:10072000F7E0EF2EF1E0FF2EF02D6E0187E0C80E0E
:10073000D11CF80161918F01F70181917F010E9425
:100740008D020C151D05A9F726960FB6F894DEBF8D
:100750000FBECDBFDF91CF911F910F91FF90EF9012
:10076000DF90CF900895CF93DF93C7E0D1E0688109
:100770008EED0E94A202682F606888810E948D021F
:10078000DF91CF910895EF92FF920F931F93CF9334
:10079000DF93CDB7DEB72C970FB6F894DEBF0FBE50
:1007A000CDBF6894EE24E1F8F12C00E010E023E0E6
:1007B00030E041E351E060E070E180E090E00E94D1
:1007C0000C02882339F11092300110922F014091D0
:1007D00051015091520160915301709154018091E7
:1007E0005501909156010E94B500F42FE52F862FF8
:1007F000972F422F532F6F2F7E2F0E9479030E9435
:10080000B3031092390110923A0110923B011092F9
:100810003C0190C080E00E94FB01811105C082E094
:100820000E94FB01882341F010923501109236019D
:100830001092370110923801EE24E394F12C01E07C
:1008400010E021E030E041E351E060E070E180E061
:1008500090E00E940C02882351F080912E0190E0DC
:10086000019666E070E00E94DB0480932E01EE2486
:10087000E394F12C00E010E020E030E041E351E0AF
:1008800060E078E080E090E00E940C02882389F02C
:1008900080912E0190E0FC01EF5AFE4F2081215003
:1008A0002083DC01A25FBE4F8C91821710F481502F
:1008B0008083EE24E394F12C02E010E022E030E0AB
:1008C00041E351E060E078E080E090E00E940C02BB
:1008D000882381F080912E0190E0FC01EF5AFE4FB9
:1008E00020812F5F2083DC01A25FBE4F8C912817EF
:1008F00008F01082E0902E01F12C409151015091AE
:100900005201609153017091540180915501909171
:1009100056010E94B500B22FA32FF42FE52F862F8A
:10092000972F00E010E097014B2F5A2F6F2F7E2F4B
:100930000E9474012C960FB6F894DEBF0FBECDBF97
:10094000DF91CF911F910F91FF90EF900895CF937A
:10095000DF93C7E0D1E06E818EED0E94A202682F86
:1009600060648E810E948D02DF91CF9108958FEF98
:1009700084B915B890E79AB91BB89FE097B988B9C0
:100980005D9A5E9A5C9A0E9448020E94B3030E949C
:10099000A70460E0809108010E948D02E0912F0180
:1009A000F0913001EE0FFF1FE050FF4F0190F081FA
:1009B000E02D0995F3CF97FB072E16F4009407D08E
:1009C00077FD09D00E94EF0407FC05D03EF4909516
:1009D00081959F4F0895709561957F4F0895AA1B4B
:1009E000BB1B51E107C0AA1FBB1FA617B70710F01A
:1009F000A61BB70B881F991F5A95A9F7809590954C
:0A0A0000BC01CD010895F894FFCF6A
:100A0A000003C303030001000102050406073C3C7E
:100A1A00180D213C190118010400010203040128E0
:0E0A2A00002B004079243019120278001000D1
:00000001FF
